:100000000C942A000C9447000C9447000C94470071
:100010000C9447000C9447000C9447000C94470044
:100020000C9447000C9447000C9447000C94E50195
:100030000C9447000C9447000C9447000C94470024
:100040000C9447000C9447000C9447000C94470014
:100050000C94470011241FBECFE5D8E0DEBFCDBF12
:1000600011E0A0E6B0E0E0E1F8E002C005900D92FA
:10007000A439B107D9F711E0A4E9B1E001C01D929C
:10008000A839B107E1F70E943B020C9406040C94D6
:10009000000082E083BF84ED82BF1CBE81E089BF87
:1000A000789408959C0184ED82BF1092950110927E
:1000B0009401809194019091950182179307C9F75B
:1000C000089584ED82BF1092950110929401809161
:1000D0009401909195010197D1F7089520E42BBBED
:1000E0002BB3262B2BBB892B11F4DC9A01C0DC9897
:1000F000DE98089521E030E002C0220F331F8A9578
:10010000E2F7822F08950F931F93CF93DF938C0113
:10011000EB01009789F580919601909197014097A6
:1001200099F481E090E060EC70E00E94830084ED3F
:1001300082BF109295011092940180919401909148
:1001400095014997D1F718C0809196019091970138
:10015000809791F481E090E060E870E00E94830075
:1001600084ED82BF109295011092940180919401C8
:10017000909195014997D1F784ED82BF1092950136
:100180001092940180919401909195010197D1F77B
:1001900080E48BBB2BB3CE0134E0959587953A95DF
:1001A000E1F7282B2BBB0115110511F4DC9A01C0D6
:1001B000DC98DE9884ED82BF109295011092940134
:1001C00080919401909195010197D1F780E48BBBC8
:1001D0008BB3CF70D0708C2B8BBB0115110511F434
:1001E000DC9A01C0DC98DE98012BA9F4809196017D
:1001F0009091970101969093970180939601809139
:10020000960190919701819731F481E090E090936D
:10021000970180939601DF91CF911F910F910895DF
:1002200010929701109296018FE78ABB84ED82BFEE
:1002300010929501109294018091940190919501F2
:100240008C529140C9F780E48BBB8BB383608BBB2E
:10025000DC98DE9884ED82BF109295011092940193
:10026000809194019091950184369105C9F780E4BD
:100270008BBB8BB383608BBBDC98DE9884ED82BF35
:1002800010929501109294018091940190919501A2
:1002900084369105C9F780E48BBB8BB383608BBB3D
:1002A000DC98DE9884ED82BF109295011092940143
:1002B000809194019091950184369105C9F780E46D
:1002C0008BBBD99ADC98DE9884ED82BF10929501A1
:1002D000109294018091940190919501843691053A
:1002E000C9F781E090E068E270E00E94830084ED4D
:1002F00082BF109295011092940180919401909187
:1003000095018A3F9105C9F781E090E068E070E0CF
:100310000E94830084ED82BF109295011092940197
:1003200080919401909195018A3F9105C9F781E0F0
:1003300090E061E070E00E94830084ED82BF109243
:1003400095011092940180919401909195018A3FBA
:100350009105C9F781E090E06EE070E00E948300B3
:1003600084ED82BF109295011092940180919401C6
:10037000909195018A3F9105C9F7089581E090E039
:1003800061E070E00E948300109297011092960144
:1003900084ED82BF10929501109294018091940196
:1003A000909195018A3F9105C9F70895CF93DF9306
:1003B000EC0105C080E090E070E00E94830069914C
:1003C0006623C1F7DF91CF9108951F920F920FB668
:1003D0000F9211248F939F9384ED82BF809194019B
:1003E00090919501019690939501809394019F912E
:1003F0008F910F900FBE0F901F90189510BC89B968
:100400008AB188618AB980B5866880BD08955D9B90
:10041000FECF8CB90895DC0128EC30E08C91882364
:1004200061F05D9BFECF8CB984EF91E0F9013197CB
:10043000F1F70197D9F71196F1CF08955F9BFECFA1
:100440008CB10895DC0120E030E0FD01E20FF31FE4
:100450004081FB01E20FF31F8081481741F44423E0
:1004600019F421E030E005C02F5F3F4FEECF20E0D0
:1004700030E0C90108954F925F926F927F928F9200
:100480009F92AF92BF92CF92DF92EF92FF920F9323
:100490001F93DF93CF93CDB7DEB7C456D0400FB6CE
:1004A000F894DEBF0FBECDBF8FEF87BB18BA84BBF9
:1004B00082E083BF84ED82BF1CBE81E089BF789457
:1004C0000E94100110BC83E389B98AB188618AB99E
:1004D00080B5866880BD80E690E00E94D601A0E0ED
:1004E000B0E06E010894C11CD11C7EEF872E7FEF17
:1004F000972E8C0E9D1E3E010894610871086DEFC9
:10050000462E6FEF562E4C0E5D1E53E3E52EF12C5A
:10051000EC0EFD1E41E3A42EB12CAC0EBD1E08EC6A
:1005200010E05F9BFECF9CB1F601EA0FFB1F9083AA
:10053000F401EA0FFB1F8081863571F4F301EA0FA5
:10054000FB1F8081853441F4FE01EA0FFB1F80818F
:100550008E3411F4943411F01196E3CFA40DB51D2F
:100560001C92C701A2E0B0E0F601EA0FFB1F208158
:10057000222329F0FC012193CF011196F5CFAA0D7A
:10058000BB1D1C920E94BE019701AFE7B0E0F701CE
:1005900090818C919817D9F4319611969923C1F7CF
:1005A00016C111968C91882359F05D9BFECF8CB9B2
:1005B00084EF91E0F8013197F1F70197D9F7F1CF86
:1005C0008BE890E00E94D6018CE990E0FBC0ACEA99
:1005D000B0E0F70190818C919817D9F4319611967B
:1005E0009923C1F7F8C011968C91882359F05D9B2F
:1005F000FECF8CB984EF91E0F8013197F1F70197C4
:10060000D9F7F1CF8BE890E00E94D60189EB90E01A
:10061000D9C0AAECB0E0F70190818C919817D9F479
:10062000319611969923C1F7DAC011968C918823DF
:1006300059F05D9BFECF8CB984EF91E0F8013197C2
:10064000F1F70197D9F7F1CF8BE890E00E94D6013E
:1006500086ED90E0B7C0A6EEB0E0F70190818C91F6
:100660009817D9F4319611969923C1F7BCC0119609
:100670008C91882359F05D9BFECF8CB984EF91E07B
:10068000F8013197F1F70197D9F7F1CF8BE890E0B6
:100690000E94D60183EF90E095C0A4E0B1E0F7019D
:1006A00090818C919817D9F4319611969923C1F7BE
:1006B0009EC011968C91882359F05D9BFECF8CB91A
:1006C00084EF91E0F8013197F1F70197D9F7F1CF75
:1006D0008BE890E00E94D60182E191E073C0A2E233
:1006E000B1E0F70190818C919817D9F43196119669
:1006F0009923C1F780C011968C91882359F05D9B96
:10070000FECF8CB984EF91E0F8013197F1F70197B2
:10071000D9F7F1CF8BE890E00E94D60181E391E018
:1007200051C0E2E4F1E0D9019C918081981731F445
:100730002F5F3F4F31969923B1F761C08BE890E06E
:100740000E94D601A0E5B1E02DC011968C918823BE
:1007500059F05D9BFECF8CB984EF91E0F8013197A1
:10076000F1F70197D9F7F1CF88B35D9BFECF805D9C
:100770008CB980E197E20197F1F7A1E6B1E08C91A5
:10078000882361F05D9BFECF8CB984EF91E0F80186
:100790003197F1F70197D9F71196F1CF87E691E0FC
:1007A00011C011968C91882359F05D9BFECF8CB9B6
:1007B00084EF91E0F8013197F1F70197D9F7F1CF84
:1007C00082E791E00E94D601A0E0B0E0AACEC09AF4
:1007D000A3E8B1E0E7CEC098A3E8B1E005CFC19AA5
:1007E000A3E8B1E023CFC198A3E8B1E041CFC29A1A
:1007F000A3E8B1E05FCFC298A3E8B1E07DCF8BE87A
:1008000090E00E94D601A0E9B1E0A0CFF894FFCF1C
:10081000486F6D65206175746F6D6174696F6E20CE
:100820002B20737065656368207265636F7A00645E
:1008300065766963656F6E656F6E0073746174755C
:10084000733A202020202020202020004465766953
:100850006365204F6E65204F4E6564006465766960
:1008600063656F6E656F66660044657669636520D3
:100870004F6E65204F464665640064657669636522
:1008800074776F6F6E004465766963652054776F87
:10089000204F4E65640064657669636574776F6F99
:1008A0006666004465766963652054776F204F461D
:1008B0004665640064657669636574687265656F32
:1008C0006E00446576696365205468726565204FE3
:1008D0004E0064657669636574687265656F666607
:1008E00000446576696365205468726565204F46EB
:1008F000460073746174757364657669636573002B
:10090000555F73657443414E43454C5F56454E44B5
:10091000005F56454E440073756363657373667577
:100920006C00756E7265636F676E697A6564206BC3
:10093000657900555F7365744F4B5F56454E4400B3
:04094000555F0000FF
:00000001FF
